:1000000001308A00A1290000CF3575376137A0186B
:100010003221693AA020E431201DA012EC3A8A0670
:1000200000002230840083130008031925280130C2
:10003000F800F701F70B1A28F80B19284A30F700D7
:10004000F70B20282328800B17288A11BB2908309A
:10005000A7007708A80083168614000006168312EE
:10006000061E302886180314861C0310F80D0000A5
:100070008316061283120612A70B2B2883168614EA
:100080000000831286102808031949288316861059
:1000900083120000831606168312061E4D280000E8
:1000A000061283160612000083128610831686102D
:1000B00083120800A301A201A401A50183168614DE
:1000C00000000616000083128610831686100000BA
:1000D00083120612831606129B308312A600083084
:1000E000F800000006128316061200008312A60D07
:1000F0008610031C7E288316861483120318832817
:10010000831686108312831606168312061E86280F
:10011000F80B7128000006128316061200008614E0
:100120000000000006168312061E9428F801000045
:100130008618781406128316061283128610831608
:1001400086100130F700831227207808A400F701F9
:1001500027207808A5008316861000000616831253
:10016000061EB0280000B428000083168614000084
:1001700083122408A3002508A2002208F8002308FF
:10018000F9008A11BC298316051183120511083064
:10019000F800CA280000F817DB28F813AB0C031886
:1001A0000515031C05117817DB287813F80BCE28EA
:1001B000D928000005151C308400840BDD28E028B8
:1001C000F81BCD28781BD52808000B08A3008B133B
:1001D000831603178C170C140000000083120313FE
:1001E000A31B8B1703181C2903170C087F39031353
:1001F000A30003170D080313A40003170F0803132C
:10020000A5002308AB00C320240803178D000313A7
:10021000250803178F0003130B08A6008B13831602
:1002200003178C170C140000000083120313A61B85
:100230008B17A20B1C293B2903170C0D0E0D7F39C0
:100240000313A30003170D080313A40003170F08DB
:100250000313A5002308AB00C320240803178D0057
:100260000313250803178F008D0A03198F0A031043
:100270000313A20BE5288A11CA29AA010408A900C0
:100280002A10831B2A14230EF038A500A507E23E8E
:10029000A600323EA80023080F39A607A607A80724
:1002A000E93EA700A707A707220E0F39A707A8074F
:1002B000A70DA80DA809A80D22080F39A807A50D9C
:1002C0000730A4000A30A807A703031C6329A70767
:1002D000A603031C6729A607A503031C6B29A50712
:1002E000A403031C6F2924308400831307302905DD
:1002F0002913840728300402031929170008F7007E
:10030000031D8A29291B8A29291A9C29A9198A29A6
:1003100020308D29A91529123030F707A3010408D0
:10032000A2002310831B23147708AB00C3202208EC
:100330008400831323188317840A291F7A298A11BA
:10034000D12903081F398300623083168F00900182
:100350000F08051183120515A101A00183161F12B4
:100360009F121B0880399B0007309C008313643068
:100370008312A20011285A287908A1007808A00049
:10038000043003178D0000308F0003101330031367
:10039000A200E528103084002108A3002008A20054
:1003A0003D290A30AB00C3200D30AB00C3208316BB
:0403B000B729630006
:04400E00103F03005C
:00000001FF
;PIC16F88
;CRC=5FEC  CREATED="05-Tem-24 07:55"
